{
  "_format": "hh-sol-artifact-1",
  "contractName": "AvaxLinkFeeds",
  "sourceName": "contracts/PriceFeed.sol",
  "abi": [
    {
      "inputs": [],
      "stateMutability": "nonpayable",
      "type": "constructor"
    },
    {
      "inputs": [],
      "name": "getAvaxUsdPrice",
      "outputs": [
        {
          "internalType": "int256",
          "name": "",
          "type": "int256"
        }
      ],
      "stateMutability": "view",
      "type": "function"
    },
    {
      "inputs": [],
      "name": "getBtcUsdPrice",
      "outputs": [
        {
          "internalType": "int256",
          "name": "",
          "type": "int256"
        }
      ],
      "stateMutability": "view",
      "type": "function"
    },
    {
      "inputs": [],
      "name": "getEthUsdPrice",
      "outputs": [
        {
          "internalType": "int256",
          "name": "",
          "type": "int256"
        }
      ],
      "stateMutability": "view",
      "type": "function"
    },
    {
      "inputs": [],
      "name": "getLinkUsdPrice",
      "outputs": [
        {
          "internalType": "int256",
          "name": "",
          "type": "int256"
        }
      ],
      "stateMutability": "view",
      "type": "function"
    }
  ],
  "bytecode": "0x608060405234801561001057600080fd5b50735498bb86bc934c8d34fda08e81d444153d0d06ad6000806101000a81548173ffffffffffffffffffffffffffffffffffffffff021916908373ffffffffffffffffffffffffffffffffffffffff1602179055507331cf013a08c6ac228c94551d535d5bafe19c602a600160006101000a81548173ffffffffffffffffffffffffffffffffffffffff021916908373ffffffffffffffffffffffffffffffffffffffff1602179055507386d67c3d38d2bcee722e601025c25a575021c6ea600260006101000a81548173ffffffffffffffffffffffffffffffffffffffff021916908373ffffffffffffffffffffffffffffffffffffffff1602179055507334c4c526902d88a3aa98db8a9b802603eb1e3470600360006101000a81548173ffffffffffffffffffffffffffffffffffffffff021916908373ffffffffffffffffffffffffffffffffffffffff16021790555061054d806101736000396000f3fe608060405234801561001057600080fd5b506004361061004c5760003560e01c806364b60700146100515780637d9586b21461006f5780638cfba64e1461008d578063a0a8045e146100ab575b600080fd5b6100596100c9565b6040516100669190610488565b60405180910390f35b610077610187565b6040516100849190610488565b60405180910390f35b610095610245565b6040516100a29190610488565b60405180910390f35b6100b3610301565b6040516100c09190610488565b60405180910390f35b600080600080600080600160009054906101000a900473ffffffffffffffffffffffffffffffffffffffff1673ffffffffffffffffffffffffffffffffffffffff1663feaf968c6040518163ffffffff1660e01b815260040160a06040518083038186803b15801561013a57600080fd5b505afa15801561014e573d6000803e3d6000fd5b505050506040513d601f19601f8201168201806040525081019061017291906103fe565b94509450945094509450839550505050505090565b600080600080600080600360009054906101000a900473ffffffffffffffffffffffffffffffffffffffff1673ffffffffffffffffffffffffffffffffffffffff1663feaf968c6040518163ffffffff1660e01b815260040160a06040518083038186803b1580156101f857600080fd5b505afa15801561020c573d6000803e3d6000fd5b505050506040513d601f19601f8201168201806040525081019061023091906103fe565b94509450945094509450839550505050505090565b60008060008060008060008054906101000a900473ffffffffffffffffffffffffffffffffffffffff1673ffffffffffffffffffffffffffffffffffffffff1663feaf968c6040518163ffffffff1660e01b815260040160a06040518083038186803b1580156102b457600080fd5b505afa1580156102c8573d6000803e3d6000fd5b505050506040513d601f19601f820116820180604052508101906102ec91906103fe565b94509450945094509450839550505050505090565b600080600080600080600260009054906101000a900473ffffffffffffffffffffffffffffffffffffffff1673ffffffffffffffffffffffffffffffffffffffff1663feaf968c6040518163ffffffff1660e01b815260040160a06040518083038186803b15801561037257600080fd5b505afa158015610386573d6000803e3d6000fd5b505050506040513d601f19601f820116820180604052508101906103aa91906103fe565b94509450945094509450839550505050505090565b6000815190506103ce816104d2565b92915050565b6000815190506103e3816104e9565b92915050565b6000815190506103f881610500565b92915050565b600080600080600060a0868803121561041a576104196104cd565b5b6000610428888289016103e9565b9550506020610439888289016103bf565b945050604061044a888289016103d4565b935050606061045b888289016103d4565b925050608061046c888289016103e9565b9150509295509295909350565b610482816104a3565b82525050565b600060208201905061049d6000830184610479565b92915050565b6000819050919050565b6000819050919050565b600069ffffffffffffffffffff82169050919050565b600080fd5b6104db816104a3565b81146104e657600080fd5b50565b6104f2816104ad565b81146104fd57600080fd5b50565b610509816104b7565b811461051457600080fd5b5056fea26469706673582212208b6b8574a5c73304990dd3ed2814784b8772c266433f2a524a46a00a5b53367c64736f6c63430008060033",
  "linkReferences": {},
  "deployedLinkReferences": {}
}